{
  "abi": [
    {
      "inputs": [
        {
          "internalType": "address",
          "name": "_registry",
          "type": "address"
        }
      ],
      "stateMutability": "nonpayable",
      "type": "constructor"
    },
    {
      "anonymous": false,
      "inputs": [
        {
          "indexed": true,
          "internalType": "address",
          "name": "daoAddress",
          "type": "address"
        }
      ],
      "name": "DAOCreated",
      "type": "event"
    },
    {
      "anonymous": false,
      "inputs": [
        {
          "indexed": true,
          "internalType": "address",
          "name": "previousOwner",
          "type": "address"
        },
        {
          "indexed": true,
          "internalType": "address",
          "name": "newOwner",
          "type": "address"
        }
      ],
      "name": "OwnershipTransferred",
      "type": "event"
    },
    {
      "inputs": [
        {
          "internalType": "address",
          "name": "_admin",
          "type": "address"
        },
        {
          "internalType": "string",
          "name": "_name",
          "type": "string"
        },
        {
          "internalType": "string",
          "name": "_description",
          "type": "string"
        }
      ],
      "name": "createDAO",
      "outputs": [],
      "stateMutability": "nonpayable",
      "type": "function"
    },
    {
      "inputs": [
        {
          "internalType": "address",
          "name": "_admin",
          "type": "address"
        },
        {
          "internalType": "string",
          "name": "_name",
          "type": "string"
        },
        {
          "internalType": "string",
          "name": "_description",
          "type": "string"
        },
        {
          "internalType": "address[]",
          "name": "_members",
          "type": "address[]"
        }
      ],
      "name": "createDAOWithMembers",
      "outputs": [],
      "stateMutability": "nonpayable",
      "type": "function"
    },
    {
      "inputs": [],
      "name": "daoRegistry",
      "outputs": [
        {
          "internalType": "contract DAORegistry",
          "name": "",
          "type": "address"
        }
      ],
      "stateMutability": "view",
      "type": "function"
    },
    {
      "inputs": [],
      "name": "owner",
      "outputs": [
        {
          "internalType": "address",
          "name": "",
          "type": "address"
        }
      ],
      "stateMutability": "view",
      "type": "function"
    },
    {
      "inputs": [],
      "name": "renounceOwnership",
      "outputs": [],
      "stateMutability": "nonpayable",
      "type": "function"
    },
    {
      "inputs": [
        {
          "internalType": "address",
          "name": "newOwner",
          "type": "address"
        }
      ],
      "name": "transferOwnership",
      "outputs": [],
      "stateMutability": "nonpayable",
      "type": "function"
    }
  ],
  "bytecode": {
    "object": "0x608060405234801561001057600080fd5b5060405161312a38038061312a83398101604081905261002f916100ad565b6100383361005d565b600180546001600160a01b0319166001600160a01b03929092169190911790556100dd565b600080546001600160a01b038381166001600160a01b0319831681178455604051919092169283917f8be0079c531659141344cd1fd0a4f28419497f9722a3daafe3b4186f6b6457e09190a35050565b6000602082840312156100bf57600080fd5b81516001600160a01b03811681146100d657600080fd5b9392505050565b61303e806100ec6000396000f3fe60806040523480156200001157600080fd5b50600436106200006a5760003560e01c80632a2b6ba0146200006f57806336e76f18146200009f578063715018a614620000b85780638da5cb5b14620000c2578063f2fde38b14620000d4578063fc66734f14620000eb575b600080fd5b60015462000083906001600160a01b031681565b6040516001600160a01b03909116815260200160405180910390f35b620000b6620000b0366004620005b3565b62000102565b005b620000b6620001e9565b6000546001600160a01b031662000083565b620000b6620000e536600462000630565b62000201565b620000b6620000fc36600462000655565b62000284565b6200010c6200041b565b60008383836040516200011f90620004c7565b6200012d93929190620007b9565b604051809103906000f0801580156200014a573d6000803e3d6000fd5b506040519091506001600160a01b038216907f9fcbb6a401790bae8845ece14b8ff9237eef958a6fbd81b5eb779be08de1cc3290600090a2600154604051636c15370360e11b81526001600160a01b0383811660048301529091169063d82a6e0690602401600060405180830381600087803b158015620001ca57600080fd5b505af1158015620001df573d6000803e3d6000fd5b5050505050505050565b620001f36200041b565b620001ff600062000477565b565b6200020b6200041b565b6001600160a01b038116620002765760405162461bcd60e51b815260206004820152602660248201527f4f776e61626c653a206e6577206f776e657220697320746865207a65726f206160448201526564647265737360d01b60648201526084015b60405180910390fd5b620002818162000477565b50565b6200028e6200041b565b6000848484604051620002a190620004c7565b620002af93929190620007b9565b604051809103906000f080158015620002cc573d6000803e3d6000fd5b50905060005b82518110156200037e57816001600160a01b031663ca6d56dc848381518110620003005762000300620007fd565b60200260200101516040518263ffffffff1660e01b81526004016200033491906001600160a01b0391909116815260200190565b600060405180830381600087803b1580156200034f57600080fd5b505af115801562000364573d6000803e3d6000fd5b505050508080620003759062000813565b915050620002d2565b506040516001600160a01b038216907f9fcbb6a401790bae8845ece14b8ff9237eef958a6fbd81b5eb779be08de1cc3290600090a2600154604051636c15370360e11b81526001600160a01b0383811660048301529091169063d82a6e0690602401600060405180830381600087803b158015620003fb57600080fd5b505af115801562000410573d6000803e3d6000fd5b505050505050505050565b6000546001600160a01b03163314620001ff5760405162461bcd60e51b815260206004820181905260248201527f4f776e61626c653a2063616c6c6572206973206e6f7420746865206f776e657260448201526064016200026d565b600080546001600160a01b038381166001600160a01b0319831681178455604051919092169283917f8be0079c531659141344cd1fd0a4f28419497f9722a3daafe3b4186f6b6457e09190a35050565b6127cd806200083c83390190565b80356001600160a01b0381168114620004ed57600080fd5b919050565b634e487b7160e01b600052604160045260246000fd5b604051601f8201601f1916810167ffffffffffffffff81118282101715620005345762000534620004f2565b604052919050565b600082601f8301126200054e57600080fd5b813567ffffffffffffffff8111156200056b576200056b620004f2565b62000580601f8201601f191660200162000508565b8181528460208386010111156200059657600080fd5b816020850160208301376000918101602001919091529392505050565b600080600060608486031215620005c957600080fd5b620005d484620004d5565b9250602084013567ffffffffffffffff80821115620005f257600080fd5b62000600878388016200053c565b935060408601359150808211156200061757600080fd5b5062000626868287016200053c565b9150509250925092565b6000602082840312156200064357600080fd5b6200064e82620004d5565b9392505050565b600080600080608085870312156200066c57600080fd5b6200067785620004d5565b935060208086013567ffffffffffffffff808211156200069657600080fd5b620006a489838a016200053c565b95506040880135915080821115620006bb57600080fd5b620006c989838a016200053c565b94506060880135915080821115620006e057600080fd5b818801915088601f830112620006f557600080fd5b8135818111156200070a576200070a620004f2565b8060051b91506200071d84830162000508565b818152918301840191848101908b8411156200073857600080fd5b938501935b8385101562000761576200075185620004d5565b825293850193908501906200073d565b989b979a50959850505050505050565b6000815180845260005b8181101562000799576020818501810151868301820152016200077b565b506000602082860101526020601f19601f83011685010191505092915050565b6001600160a01b0384168152606060208201819052600090620007df9083018562000771565b8281036040840152620007f3818562000771565b9695505050505050565b634e487b7160e01b600052603260045260246000fd5b6000600182016200083457634e487b7160e01b600052601160045260246000fd5b506001019056fe60806040523480156200001157600080fd5b50604051620027cd380380620027cd8339810160408190526200003491620001ea565b6200004160008462000075565b6200004e60003362000075565b60076200005c838262000303565b5060086200006b828262000303565b50505050620003cf565b62000081828262000085565b5050565b6000828152602081815260408083206001600160a01b038516845290915290205460ff1662000081576000828152602081815260408083206001600160a01b03851684529091529020805460ff19166001179055620000e13390565b6001600160a01b0316816001600160a01b0316837f2f8788117e7eff1d82e926ec794901d17c78024a50270940304540a733656f0d60405160405180910390a45050565b634e487b7160e01b600052604160045260246000fd5b600082601f8301126200014d57600080fd5b81516001600160401b03808211156200016a576200016a62000125565b604051601f8301601f19908116603f0116810190828211818310171562000195576200019562000125565b81604052838152602092508683858801011115620001b257600080fd5b600091505b83821015620001d65785820183015181830184015290820190620001b7565b600093810190920192909252949350505050565b6000806000606084860312156200020057600080fd5b83516001600160a01b03811681146200021857600080fd5b60208501519093506001600160401b03808211156200023657600080fd5b62000244878388016200013b565b935060408601519150808211156200025b57600080fd5b506200026a868287016200013b565b9150509250925092565b600181811c908216806200028957607f821691505b602082108103620002aa57634e487b7160e01b600052602260045260246000fd5b50919050565b601f821115620002fe57600081815260208120601f850160051c81016020861015620002d95750805b601f850160051c820191505b81811015620002fa57828155600101620002e5565b5050505b505050565b81516001600160401b038111156200031f576200031f62000125565b620003378162000330845462000274565b84620002b0565b602080601f8311600181146200036f5760008415620003565750858301515b600019600386901b1c1916600185901b178555620002fa565b600085815260208120601f198616915b82811015620003a0578886015182559484019460019091019084016200037f565b5085821015620003bf5787850151600019600388901b60f8161c191681555b5050505050600190811b01905550565b6123ee80620003df6000396000f3fe60806040523480156200001157600080fd5b5060043610620001925760003560e01c806336568abe11620000f057806391d1485411620000a3578063a230c524116200007a578063a230c52414620003bb578063b03cd41814620003ea578063ca6d56dc1462000401578063d547741f146200041857600080fd5b806391d148541462000384578063a10f469e146200039b578063a217fddf14620003b257600080fd5b806336568abe1462000314578063556f6cc0146200032b5780636a7bbabb14620003425780637284e4161462000359578063754bf3de14620003635780638f61f4f5146200036d57600080fd5b80630a9f46ad11620001495780630a9f46ad14620002775780630b1ca49a14620002905780631817749714620002a7578063248a9ca314620002cd578063297f9af014620002f35780632f2ff15d14620002fd57600080fd5b8063013cf08b146200019757806301ffc9a714620001e05780630386a016146200020857806306fdde03146200022157806308ae4b0c146200023a57806309d632d31462000260575b600080fd5b620001c3620001a836600462000dff565b6003602052600090815260409020546001600160a01b031681565b6040516001600160a01b0390911681526020015b60405180910390f35b620001f7620001f136600462000e19565b6200042f565b6040519015158152602001620001d7565b6200021f6200021936600462000dff565b62000467565b005b6200022b620004e1565b604051620001d7919062000e99565b620001f76200024b36600462000ecb565b60016020526000908152604090205460ff1681565b6200021f6200027136600462000ecb565b62000577565b6200028160065481565b604051908152602001620001d7565b6200021f620002a136600462000ecb565b6200060c565b620001f7620002b836600462000ecb565b60026020526000908152604090205460ff1681565b62000281620002de36600462000dff565b60009081526020819052604090206001015490565b6200028160045481565b6200021f6200030e36600462000ee9565b620006a1565b6200021f6200032536600462000ee9565b620006cf565b6200021f6200033c36600462000f18565b62000755565b6200021f62000353366004620010a7565b620007e5565b6200022b620008bd565b6200028160055481565b620002816000805160206200237983398151915281565b620001f76200039536600462000ee9565b620008cc565b620002816000805160206200239983398151915281565b62000281600081565b620001f7620003cc36600462000ecb565b6001600160a01b031660009081526001602052604090205460ff1690565b6200021f620003fb36600462000ecb565b620008f5565b6200021f6200041236600462000ecb565b620009f7565b6200021f6200042936600462000ee9565b62000a91565b60006001600160e01b03198216637965db0b60e01b14806200046157506301ffc9a760e01b6001600160e01b03198316145b92915050565b6000620004748162000aba565b6000828152600360205260408082205481516348f8545160e01b815291516001600160a01b039091169283926348f85451926004808301939282900301818387803b158015620004c357600080fd5b505af1158015620004d8573d6000803e3d6000fd5b50505050505050565b60078054620004f09062001161565b80601f01602080910402602001604051908101604052809291908181526020018280546200051e9062001161565b80156200056f5780601f1062000543576101008083540402835291602001916200056f565b820191906000526020600020905b8154815290600101906020018083116200055157829003601f168201915b505050505081565b6000620005848162000aba565b6200059f600080516020620023798339815191528362000a91565b6001600160a01b0382166000908152600260205260408120805460ff191690556005805491620005cf83620011b3565b90915550506040516001600160a01b038316907fbab6b194452fd4fa50e0ca09bf0f89976da30a2b92fdf91372ad1a176d81e32890600090a25050565b6000620006198162000aba565b62000634600080516020620023998339815191528362000a91565b6001600160a01b0382166000908152600160205260408120805460ff1916905560048054916200066483620011b3565b90915550506040516001600160a01b038316907f6e76fb4c77256006d9c38ec7d82b45a8c8f3c27b1d6766fffc42dfb8de68449290600090a25050565b600082815260208190526040902060010154620006be8162000aba565b620006ca838362000ac9565b505050565b6001600160a01b0381163314620007455760405162461bcd60e51b815260206004820152602f60248201527f416363657373436f6e74726f6c3a2063616e206f6e6c792072656e6f756e636560448201526e103937b632b9903337b91039b2b63360891b60648201526084015b60405180910390fd5b62000751828262000b51565b5050565b60008051602062002399833981519152620007708162000aba565b60008381526003602052604090819020549051630121b93f60e01b8152600481018490526001600160a01b03909116908190630121b93f90602401600060405180830381600087803b158015620007c657600080fd5b505af1158015620007db573d6000803e3d6000fd5b5050505050505050565b60008051602062002379833981519152620008008162000aba565b600085858585604051620008149062000df1565b62000823949392919062001226565b604051809103906000f08015801562000840573d6000803e3d6000fd5b5060068054600090815260036020526040812080546001600160a01b0319166001600160a01b03851617905581549293506200087c8362001286565b90915550506040516001600160a01b038216907f488fccde177d9377f35d8d9a4f0b3462fcc7cdb926a00d3d99630ef1d672a2cd90600090a2505050505050565b60088054620004f09062001161565b6000918252602082815260408084206001600160a01b0393909316845291905290205460ff1690565b6000620009028162000aba565b6001600160a01b03821660009081526001602052604090205460ff166200096c5760405162461bcd60e51b815260206004820152601e60248201527f44414f3a2070726f706f736572206d7573742062652061206d656d626572000060448201526064016200073c565b620009876000805160206200237983398151915283620006a1565b6001600160a01b0382166000908152600260205260408120805460ff191660011790556005805491620009ba8362001286565b90915550506040516001600160a01b038316907f2bf05609716bc4b090ad0e99b47b91881c7517771259c625df05db7e9d8c818190600090a25050565b600062000a048162000aba565b62000a1f6000805160206200239983398151915283620006a1565b6001600160a01b03821660009081526001602081905260408220805460ff19169091179055600480549162000a548362001286565b90915550506040516001600160a01b038316907fb251eb052afc73ffd02ffe85ad79990a8b3fed60d76dbc2fa2fdd7123dffd91490600090a25050565b60008281526020819052604090206001015462000aae8162000aba565b620006ca838362000b51565b62000ac6813362000bb9565b50565b62000ad58282620008cc565b62000751576000828152602081815260408083206001600160a01b03851684529091529020805460ff1916600117905562000b0d3390565b6001600160a01b0316816001600160a01b0316837f2f8788117e7eff1d82e926ec794901d17c78024a50270940304540a733656f0d60405160405180910390a45050565b62000b5d8282620008cc565b1562000751576000828152602081815260408083206001600160a01b0385168085529252808320805460ff1916905551339285917ff6391f5c32d9c69d2a47ea670b442974b53935d1edc7fd64eb21e047a839171b9190a45050565b62000bc58282620008cc565b620007515762000bd58162000c1d565b62000be283602062000c30565b60405160200162000bf5929190620012a2565b60408051601f198184030181529082905262461bcd60e51b82526200073c9160040162000e99565b6060620004616001600160a01b03831660145b6060600062000c418360026200131b565b62000c4e90600262001335565b67ffffffffffffffff81111562000c695762000c6962000f3b565b6040519080825280601f01601f19166020018201604052801562000c94576020820181803683370190505b509050600360fc1b8160008151811062000cb25762000cb26200134b565b60200101906001600160f81b031916908160001a905350600f60fb1b8160018151811062000ce45762000ce46200134b565b60200101906001600160f81b031916908160001a905350600062000d0a8460026200131b565b62000d1790600162001335565b90505b600181111562000d99576f181899199a1a9b1b9c1cb0b131b232b360811b85600f166010811062000d4f5762000d4f6200134b565b1a60f81b82828151811062000d685762000d686200134b565b60200101906001600160f81b031916908160001a90535060049490941c9362000d9181620011b3565b905062000d1a565b50831562000dea5760405162461bcd60e51b815260206004820181905260248201527f537472696e67733a20686578206c656e67746820696e73756666696369656e7460448201526064016200073c565b9392505050565b611017806200136283390190565b60006020828403121562000e1257600080fd5b5035919050565b60006020828403121562000e2c57600080fd5b81356001600160e01b03198116811462000dea57600080fd5b60005b8381101562000e6257818101518382015260200162000e48565b50506000910152565b6000815180845262000e8581602086016020860162000e45565b601f01601f19169290920160200192915050565b60208152600062000dea602083018462000e6b565b80356001600160a01b038116811462000ec657600080fd5b919050565b60006020828403121562000ede57600080fd5b62000dea8262000eae565b6000806040838503121562000efd57600080fd5b8235915062000f0f6020840162000eae565b90509250929050565b6000806040838503121562000f2c57600080fd5b50508035926020909101359150565b634e487b7160e01b600052604160045260246000fd5b604051601f8201601f1916810167ffffffffffffffff8111828210171562000f7d5762000f7d62000f3b565b604052919050565b600082601f83011262000f9757600080fd5b813567ffffffffffffffff81111562000fb45762000fb462000f3b565b62000fc9601f8201601f191660200162000f51565b81815284602083860101111562000fdf57600080fd5b816020850160208301376000918101602001919091529392505050565b600082601f8301126200100e57600080fd5b8135602067ffffffffffffffff808311156200102e576200102e62000f3b565b8260051b6200103f83820162000f51565b93845285810183019383810190888611156200105a57600080fd5b84880192505b858310156200109b578235848111156200107a5760008081fd5b6200108a8a87838c010162000f85565b835250918401919084019062001060565b98975050505050505050565b60008060008060808587031215620010be57600080fd5b843567ffffffffffffffff80821115620010d757600080fd5b620010e58883890162000f85565b95506020870135915080821115620010fc57600080fd5b6200110a8883890162000f85565b945060408701359150808211156200112157600080fd5b6200112f8883890162000ffc565b935060608701359150808211156200114657600080fd5b50620011558782880162000ffc565b91505092959194509250565b600181811c908216806200117657607f821691505b6020821081036200119757634e487b7160e01b600052602260045260246000fd5b50919050565b634e487b7160e01b600052601160045260246000fd5b600081620011c557620011c56200119d565b506000190190565b600081518084526020808501808196508360051b8101915082860160005b85811015620012195782840389526200120684835162000e6b565b98850198935090840190600101620011eb565b5091979650505050505050565b6080815260006200123b608083018762000e6b565b82810360208401526200124f818762000e6b565b90508281036040840152620012658186620011cd565b905082810360608401526200127b8185620011cd565b979650505050505050565b6000600182016200129b576200129b6200119d565b5060010190565b7f416363657373436f6e74726f6c3a206163636f756e7420000000000000000000815260008351620012dc81601785016020880162000e45565b7001034b99036b4b9b9b4b733903937b6329607d1b60179184019182015283516200130f81602884016020880162000e45565b01602801949350505050565b80820281158282048414176200046157620004616200119d565b808201808211156200046157620004616200119d565b634e487b7160e01b600052603260045260246000fdfe60806040523480156200001157600080fd5b506040516200101738038062001017833981016040819052620000349162000329565b8051825114620000b05760405162461bcd60e51b815260206004820152603560248201527f4f7074696f6e206e616d657320616e64206465736372697074696f6e73206d7560448201527f7374206265207468652073616d65206c656e6774680000000000000000000000606482015260840160405180910390fd5b6000620000be858262000471565b506001620000cd848262000471565b5060005b8251811015620001935760036040518060600160405280858481518110620000fd57620000fd6200053d565b602002602001015181526020018484815181106200011f576200011f6200053d565b6020908102919091018101518252600091810182905283546001810185559382529020815191926003020190819062000159908262000471565b506020820151600182019062000170908262000471565b5060408201518160020155505080806200018a9062000553565b915050620000d1565b50506002805460ff19169055506200057b915050565b634e487b7160e01b600052604160045260246000fd5b604051601f8201601f191681016001600160401b0381118282101715620001ea57620001ea620001a9565b604052919050565b600082601f8301126200020457600080fd5b81516001600160401b03811115620002205762000220620001a9565b602062000236601f8301601f19168201620001bf565b82815285828487010111156200024b57600080fd5b60005b838110156200026b5785810183015182820184015282016200024e565b506000928101909101919091529392505050565b600082601f8301126200029157600080fd5b815160206001600160401b0380831115620002b057620002b0620001a9565b8260051b620002c1838201620001bf565b9384528581018301938381019088861115620002dc57600080fd5b84880192505b858310156200031d57825184811115620002fc5760008081fd5b6200030c8a87838c0101620001f2565b8352509184019190840190620002e2565b98975050505050505050565b600080600080608085870312156200034057600080fd5b84516001600160401b03808211156200035857600080fd5b6200036688838901620001f2565b955060208701519150808211156200037d57600080fd5b6200038b88838901620001f2565b94506040870151915080821115620003a257600080fd5b620003b0888389016200027f565b93506060870151915080821115620003c757600080fd5b50620003d6878288016200027f565b91505092959194509250565b600181811c90821680620003f757607f821691505b6020821081036200041857634e487b7160e01b600052602260045260246000fd5b50919050565b601f8211156200046c57600081815260208120601f850160051c81016020861015620004475750805b601f850160051c820191505b81811015620004685782815560010162000453565b5050505b505050565b81516001600160401b038111156200048d576200048d620001a9565b620004a5816200049e8454620003e2565b846200041e565b602080601f831160018114620004dd5760008415620004c45750858301515b600019600386901b1c1916600185901b17855562000468565b600085815260208120601f198616915b828110156200050e57888601518255948401946001909101908401620004ed565b50858210156200052d5787850151600019600388901b60f8161c191681555b5050505050600190811b01905550565b634e487b7160e01b600052603260045260246000fd5b6000600182016200057457634e487b7160e01b600052601160045260246000fd5b5060010190565b610a8c806200058b6000396000f3fe608060405234801561001057600080fd5b50600436106100935760003560e01c80635eb57b48116100665780635eb57b48146100f55780637284e41614610106578063a3ec138d1461010e578063c19d93fb14610141578063cb3d197c1461015b57600080fd5b80630121b93f14610098578063409e2205146100ad57806348f85451146100d85780634a79d50c146100e0575b600080fd5b6100ab6100a63660046107e5565b61017b565b005b6100c06100bb3660046107e5565b6102fb565b6040516100cf93929190610844565b60405180910390f35b6100ab610445565b6100e86104dc565b6040516100cf919061087a565b6003546040519081526020016100cf565b6100e861056a565b61013161011c366004610894565b60046020526000908152604090205460ff1681565b60405190151581526020016100cf565b60025461014e9060ff1681565b6040516100cf91906108d3565b61016e6101693660046108fb565b610577565b6040516100cf919061091d565b600060025460ff166001811115610194576101946108bd565b146101df5760405162461bcd60e51b815260206004820152601660248201527550726f706f73616c206973206e6f742061637469766560501b60448201526064015b60405180910390fd5b3360009081526004602052604090205460ff16156102385760405162461bcd60e51b8152602060048201526016602482015275165bdd481a185d9948185b1c9958591e481d9bdd195960521b60448201526064016101d6565b600354811061027a5760405162461bcd60e51b815260206004820152600e60248201526d24b73b30b634b21037b83a34b7b760911b60448201526064016101d6565b336000908152600460205260409020805460ff1916600117905560038054829081106102a8576102a86109ae565b6000918252602082206002600390920201018054916102c6836109da565b9091555050604051819033907f555adcdf1debebc2cedd40be5276986de146ca91a6a1b40759f88ea335f261e790600090a350565b6003818154811061030b57600080fd5b906000526020600020906003020160009150905080600001805461032e906109f3565b80601f016020809104026020016040519081016040528092919081815260200182805461035a906109f3565b80156103a75780601f1061037c576101008083540402835291602001916103a7565b820191906000526020600020905b81548152906001019060200180831161038a57829003601f168201915b5050505050908060010180546103bc906109f3565b80601f01602080910402602001604051908101604052809291908181526020018280546103e8906109f3565b80156104355780601f1061040a57610100808354040283529160200191610435565b820191906000526020600020905b81548152906001019060200180831161041857829003601f168201915b5050505050908060020154905083565b600060025460ff16600181111561045e5761045e6108bd565b146104a45760405162461bcd60e51b815260206004820152601660248201527550726f706f73616c206973206e6f742061637469766560501b60448201526064016101d6565b6002805460ff191660011790556040517f1446e503e0d3e19d3f0f2b318d1d7a201dd861f5f6496b1a1e493153534c894590600090a1565b600080546104e9906109f3565b80601f0160208091040260200160405190810160405280929190818152602001828054610515906109f3565b80156105625780601f1061053757610100808354040283529160200191610562565b820191906000526020600020905b81548152906001019060200180831161054557829003601f168201915b505050505081565b600180546104e9906109f3565b6003546060906105878385610a2d565b11156105ca5760405162461bcd60e51b8152602060048201526012602482015271496e76616c69642062617463682073697a6560701b60448201526064016101d6565b60008267ffffffffffffffff8111156105e5576105e5610a40565b60405190808252806020026020018201604052801561063a57816020015b61062760405180606001604052806060815260200160608152602001600081525090565b8152602001906001900390816106035790505b50905060005b838110156107db5760036106548287610a2d565b81548110610664576106646109ae565b906000526020600020906003020160405180606001604052908160008201805461068d906109f3565b80601f01602080910402602001604051908101604052809291908181526020018280546106b9906109f3565b80156107065780601f106106db57610100808354040283529160200191610706565b820191906000526020600020905b8154815290600101906020018083116106e957829003601f168201915b5050505050815260200160018201805461071f906109f3565b80601f016020809104026020016040519081016040528092919081815260200182805461074b906109f3565b80156107985780601f1061076d57610100808354040283529160200191610798565b820191906000526020600020905b81548152906001019060200180831161077b57829003601f168201915b505050505081526020016002820154815250508282815181106107bd576107bd6109ae565b602002602001018190525080806107d3906109da565b915050610640565b5090505b92915050565b6000602082840312156107f757600080fd5b5035919050565b6000815180845260005b8181101561082457602081850181015186830182015201610808565b506000602082860101526020601f19601f83011685010191505092915050565b60608152600061085760608301866107fe565b828103602084015261086981866107fe565b915050826040830152949350505050565b60208152600061088d60208301846107fe565b9392505050565b6000602082840312156108a657600080fd5b81356001600160a01b038116811461088d57600080fd5b634e487b7160e01b600052602160045260246000fd5b60208101600283106108f557634e487b7160e01b600052602160045260246000fd5b91905290565b6000806040838503121561090e57600080fd5b50508035926020909101359150565b60006020808301818452808551808352604092508286019150828160051b87010184880160005b838110156109a057603f1989840301855281516060815181865261096a828701826107fe565b915050888201518582038a87015261098282826107fe565b92890151958901959095525094870194925090860190600101610944565b509098975050505050505050565b634e487b7160e01b600052603260045260246000fd5b634e487b7160e01b600052601160045260246000fd5b6000600182016109ec576109ec6109c4565b5060010190565b600181811c90821680610a0757607f821691505b602082108103610a2757634e487b7160e01b600052602260045260246000fd5b50919050565b808201808211156107df576107df6109c4565b634e487b7160e01b600052604160045260246000fdfea2646970667358221220aa6efda7594c26b40bcdd0c6596fb2f5cdfb9914dc8c0a4fcd0388d138a0725f64736f6c63430008130033b09aa5aeb3702cfd50b6b62bc4532604938f21248a27a1d5ca736082b6819cc1829b824e2329e205435d941c9f13baf578548505283d29261236d8e6596d4636a264697066735822122008a2e2ce498d21fe0ba7cc9ecc33fd130b1faa2e9ca748461a51ae4dcfd6df7464736f6c63430008130033a2646970667358221220e3014130eceaf787340fc7b0b9f8351b8466b7b4883c526e3c8a65fcf5dd1f7364736f6c63430008130033",
    "linkReferences": {}
  },
  "methodIdentifiers": {
    "createDAO(address,string,string)": "36e76f18",
    "createDAOWithMembers(address,string,string,address[])": "fc66734f",
    "daoRegistry()": "2a2b6ba0",
    "owner()": "8da5cb5b",
    "renounceOwnership()": "715018a6",
    "transferOwnership(address)": "f2fde38b"
  },
  "id": 4
}