{
    "abi": [
        {
            "inputs": [
                {
                    "internalType": "string",
                    "name": "_title",
                    "type": "string"
                },
                {
                    "internalType": "string",
                    "name": "_description",
                    "type": "string"
                },
                {
                    "internalType": "string[]",
                    "name": "_optionNames",
                    "type": "string[]"
                },
                {
                    "internalType": "string[]",
                    "name": "_optionDescriptions",
                    "type": "string[]"
                }
            ],
            "stateMutability": "nonpayable",
            "type": "constructor"
        },
        {
            "anonymous": false,
            "inputs": [],
            "name": "ProposalClosed",
            "type": "event"
        },
        {
            "anonymous": false,
            "inputs": [
                {
                    "indexed": true,
                    "internalType": "address",
                    "name": "voter",
                    "type": "address"
                },
                {
                    "indexed": true,
                    "internalType": "uint256",
                    "name": "optionId",
                    "type": "uint256"
                }
            ],
            "name": "ProposalVoteCast",
            "type": "event"
        },
        {
            "inputs": [],
            "name": "closeProposal",
            "outputs": [],
            "stateMutability": "nonpayable",
            "type": "function"
        },
        {
            "inputs": [],
            "name": "description",
            "outputs": [
                {
                    "internalType": "string",
                    "name": "",
                    "type": "string"
                }
            ],
            "stateMutability": "view",
            "type": "function"
        },
        {
            "inputs": [
                {
                    "internalType": "uint256",
                    "name": "_start",
                    "type": "uint256"
                },
                {
                    "internalType": "uint256",
                    "name": "_count",
                    "type": "uint256"
                }
            ],
            "name": "getOptionsBatch",
            "outputs": [
                {
                    "components": [
                        {
                            "internalType": "string",
                            "name": "name",
                            "type": "string"
                        },
                        {
                            "internalType": "string",
                            "name": "description",
                            "type": "string"
                        },
                        {
                            "internalType": "uint256",
                            "name": "voteCount",
                            "type": "uint256"
                        }
                    ],
                    "internalType": "struct Proposal.Option[]",
                    "name": "",
                    "type": "tuple[]"
                }
            ],
            "stateMutability": "view",
            "type": "function"
        },
        {
            "inputs": [],
            "name": "getOptionsLength",
            "outputs": [
                {
                    "internalType": "uint256",
                    "name": "",
                    "type": "uint256"
                }
            ],
            "stateMutability": "view",
            "type": "function"
        },
        {
            "inputs": [
                {
                    "internalType": "uint256",
                    "name": "",
                    "type": "uint256"
                }
            ],
            "name": "options",
            "outputs": [
                {
                    "internalType": "string",
                    "name": "name",
                    "type": "string"
                },
                {
                    "internalType": "string",
                    "name": "description",
                    "type": "string"
                },
                {
                    "internalType": "uint256",
                    "name": "voteCount",
                    "type": "uint256"
                }
            ],
            "stateMutability": "view",
            "type": "function"
        },
        {
            "inputs": [],
            "name": "state",
            "outputs": [
                {
                    "internalType": "enum Proposal.ProposalState",
                    "name": "",
                    "type": "uint8"
                }
            ],
            "stateMutability": "view",
            "type": "function"
        },
        {
            "inputs": [],
            "name": "title",
            "outputs": [
                {
                    "internalType": "string",
                    "name": "",
                    "type": "string"
                }
            ],
            "stateMutability": "view",
            "type": "function"
        },
        {
            "inputs": [
                {
                    "internalType": "uint256",
                    "name": "_optionId",
                    "type": "uint256"
                }
            ],
            "name": "vote",
            "outputs": [],
            "stateMutability": "nonpayable",
            "type": "function"
        },
        {
            "inputs": [
                {
                    "internalType": "address",
                    "name": "",
                    "type": "address"
                }
            ],
            "name": "voters",
            "outputs": [
                {
                    "internalType": "bool",
                    "name": "",
                    "type": "bool"
                }
            ],
            "stateMutability": "view",
            "type": "function"
        }
    ],
    "bytecode": {
        "object": "0x60806040523480156200001157600080fd5b506040516200101738038062001017833981016040819052620000349162000329565b8051825114620000b05760405162461bcd60e51b815260206004820152603560248201527f4f7074696f6e206e616d657320616e64206465736372697074696f6e73206d7560448201527f7374206265207468652073616d65206c656e6774680000000000000000000000606482015260840160405180910390fd5b6000620000be858262000471565b506001620000cd848262000471565b5060005b8251811015620001935760036040518060600160405280858481518110620000fd57620000fd6200053d565b602002602001015181526020018484815181106200011f576200011f6200053d565b6020908102919091018101518252600091810182905283546001810185559382529020815191926003020190819062000159908262000471565b506020820151600182019062000170908262000471565b5060408201518160020155505080806200018a9062000553565b915050620000d1565b50506002805460ff19169055506200057b915050565b634e487b7160e01b600052604160045260246000fd5b604051601f8201601f191681016001600160401b0381118282101715620001ea57620001ea620001a9565b604052919050565b600082601f8301126200020457600080fd5b81516001600160401b03811115620002205762000220620001a9565b602062000236601f8301601f19168201620001bf565b82815285828487010111156200024b57600080fd5b60005b838110156200026b5785810183015182820184015282016200024e565b506000928101909101919091529392505050565b600082601f8301126200029157600080fd5b815160206001600160401b0380831115620002b057620002b0620001a9565b8260051b620002c1838201620001bf565b9384528581018301938381019088861115620002dc57600080fd5b84880192505b858310156200031d57825184811115620002fc5760008081fd5b6200030c8a87838c0101620001f2565b8352509184019190840190620002e2565b98975050505050505050565b600080600080608085870312156200034057600080fd5b84516001600160401b03808211156200035857600080fd5b6200036688838901620001f2565b955060208701519150808211156200037d57600080fd5b6200038b88838901620001f2565b94506040870151915080821115620003a257600080fd5b620003b0888389016200027f565b93506060870151915080821115620003c757600080fd5b50620003d6878288016200027f565b91505092959194509250565b600181811c90821680620003f757607f821691505b6020821081036200041857634e487b7160e01b600052602260045260246000fd5b50919050565b601f8211156200046c57600081815260208120601f850160051c81016020861015620004475750805b601f850160051c820191505b81811015620004685782815560010162000453565b5050505b505050565b81516001600160401b038111156200048d576200048d620001a9565b620004a5816200049e8454620003e2565b846200041e565b602080601f831160018114620004dd5760008415620004c45750858301515b600019600386901b1c1916600185901b17855562000468565b600085815260208120601f198616915b828110156200050e57888601518255948401946001909101908401620004ed565b50858210156200052d5787850151600019600388901b60f8161c191681555b5050505050600190811b01905550565b634e487b7160e01b600052603260045260246000fd5b6000600182016200057457634e487b7160e01b600052601160045260246000fd5b5060010190565b610a8c806200058b6000396000f3fe608060405234801561001057600080fd5b50600436106100935760003560e01c80635eb57b48116100665780635eb57b48146100f55780637284e41614610106578063a3ec138d1461010e578063c19d93fb14610141578063cb3d197c1461015b57600080fd5b80630121b93f14610098578063409e2205146100ad57806348f85451146100d85780634a79d50c146100e0575b600080fd5b6100ab6100a63660046107e5565b61017b565b005b6100c06100bb3660046107e5565b6102fb565b6040516100cf93929190610844565b60405180910390f35b6100ab610445565b6100e86104dc565b6040516100cf919061087a565b6003546040519081526020016100cf565b6100e861056a565b61013161011c366004610894565b60046020526000908152604090205460ff1681565b60405190151581526020016100cf565b60025461014e9060ff1681565b6040516100cf91906108d3565b61016e6101693660046108fb565b610577565b6040516100cf919061091d565b600060025460ff166001811115610194576101946108bd565b146101df5760405162461bcd60e51b815260206004820152601660248201527550726f706f73616c206973206e6f742061637469766560501b60448201526064015b60405180910390fd5b3360009081526004602052604090205460ff16156102385760405162461bcd60e51b8152602060048201526016602482015275165bdd481a185d9948185b1c9958591e481d9bdd195960521b60448201526064016101d6565b600354811061027a5760405162461bcd60e51b815260206004820152600e60248201526d24b73b30b634b21037b83a34b7b760911b60448201526064016101d6565b336000908152600460205260409020805460ff1916600117905560038054829081106102a8576102a86109ae565b6000918252602082206002600390920201018054916102c6836109da565b9091555050604051819033907f555adcdf1debebc2cedd40be5276986de146ca91a6a1b40759f88ea335f261e790600090a350565b6003818154811061030b57600080fd5b906000526020600020906003020160009150905080600001805461032e906109f3565b80601f016020809104026020016040519081016040528092919081815260200182805461035a906109f3565b80156103a75780601f1061037c576101008083540402835291602001916103a7565b820191906000526020600020905b81548152906001019060200180831161038a57829003601f168201915b5050505050908060010180546103bc906109f3565b80601f01602080910402602001604051908101604052809291908181526020018280546103e8906109f3565b80156104355780601f1061040a57610100808354040283529160200191610435565b820191906000526020600020905b81548152906001019060200180831161041857829003601f168201915b5050505050908060020154905083565b600060025460ff16600181111561045e5761045e6108bd565b146104a45760405162461bcd60e51b815260206004820152601660248201527550726f706f73616c206973206e6f742061637469766560501b60448201526064016101d6565b6002805460ff191660011790556040517f1446e503e0d3e19d3f0f2b318d1d7a201dd861f5f6496b1a1e493153534c894590600090a1565b600080546104e9906109f3565b80601f0160208091040260200160405190810160405280929190818152602001828054610515906109f3565b80156105625780601f1061053757610100808354040283529160200191610562565b820191906000526020600020905b81548152906001019060200180831161054557829003601f168201915b505050505081565b600180546104e9906109f3565b6003546060906105878385610a2d565b11156105ca5760405162461bcd60e51b8152602060048201526012602482015271496e76616c69642062617463682073697a6560701b60448201526064016101d6565b60008267ffffffffffffffff8111156105e5576105e5610a40565b60405190808252806020026020018201604052801561063a57816020015b61062760405180606001604052806060815260200160608152602001600081525090565b8152602001906001900390816106035790505b50905060005b838110156107db5760036106548287610a2d565b81548110610664576106646109ae565b906000526020600020906003020160405180606001604052908160008201805461068d906109f3565b80601f01602080910402602001604051908101604052809291908181526020018280546106b9906109f3565b80156107065780601f106106db57610100808354040283529160200191610706565b820191906000526020600020905b8154815290600101906020018083116106e957829003601f168201915b5050505050815260200160018201805461071f906109f3565b80601f016020809104026020016040519081016040528092919081815260200182805461074b906109f3565b80156107985780601f1061076d57610100808354040283529160200191610798565b820191906000526020600020905b81548152906001019060200180831161077b57829003601f168201915b505050505081526020016002820154815250508282815181106107bd576107bd6109ae565b602002602001018190525080806107d3906109da565b915050610640565b5090505b92915050565b6000602082840312156107f757600080fd5b5035919050565b6000815180845260005b8181101561082457602081850181015186830182015201610808565b506000602082860101526020601f19601f83011685010191505092915050565b60608152600061085760608301866107fe565b828103602084015261086981866107fe565b915050826040830152949350505050565b60208152600061088d60208301846107fe565b9392505050565b6000602082840312156108a657600080fd5b81356001600160a01b038116811461088d57600080fd5b634e487b7160e01b600052602160045260246000fd5b60208101600283106108f557634e487b7160e01b600052602160045260246000fd5b91905290565b6000806040838503121561090e57600080fd5b50508035926020909101359150565b60006020808301818452808551808352604092508286019150828160051b87010184880160005b838110156109a057603f1989840301855281516060815181865261096a828701826107fe565b915050888201518582038a87015261098282826107fe565b92890151958901959095525094870194925090860190600101610944565b509098975050505050505050565b634e487b7160e01b600052603260045260246000fd5b634e487b7160e01b600052601160045260246000fd5b6000600182016109ec576109ec6109c4565b5060010190565b600181811c90821680610a0757607f821691505b602082108103610a2757634e487b7160e01b600052602260045260246000fd5b50919050565b808201808211156107df576107df6109c4565b634e487b7160e01b600052604160045260246000fdfea2646970667358221220aa6efda7594c26b40bcdd0c6596fb2f5cdfb9914dc8c0a4fcd0388d138a0725f64736f6c63430008130033",
        "linkReferences": {}
    },
    "methodIdentifiers": {
        "closeProposal()": "48f85451",
        "description()": "7284e416",
        "getOptionsBatch(uint256,uint256)": "cb3d197c",
        "getOptionsLength()": "5eb57b48",
        "options(uint256)": "409e2205",
        "state()": "c19d93fb",
        "title()": "4a79d50c",
        "vote(uint256)": "0121b93f",
        "voters(address)": "a3ec138d"
    },
    "id": 7
}